{
  "contractName": "WrappedERC20Factory",
  "abi": [
    {
      "constant": true,
      "inputs": [
        {
          "internalType": "address",
          "name": "",
          "type": "address"
        }
      ],
      "name": "exchanges",
      "outputs": [
        {
          "internalType": "contract IExchange",
          "name": "",
          "type": "address"
        }
      ],
      "payable": false,
      "stateMutability": "view",
      "type": "function"
    },
    {
      "constant": true,
      "inputs": [
        {
          "internalType": "address",
          "name": "",
          "type": "address"
        }
      ],
      "name": "wrappedTokens",
      "outputs": [
        {
          "internalType": "contract IERC20MintableBurnable",
          "name": "",
          "type": "address"
        }
      ],
      "payable": false,
      "stateMutability": "view",
      "type": "function"
    },
    {
      "anonymous": false,
      "inputs": [
        {
          "indexed": false,
          "internalType": "address",
          "name": "collateral",
          "type": "address"
        },
        {
          "indexed": false,
          "internalType": "address",
          "name": "wrappedToken",
          "type": "address"
        }
      ],
      "name": "WrappedTokenCreated",
      "type": "event"
    },
    {
      "anonymous": false,
      "inputs": [
        {
          "indexed": false,
          "internalType": "address",
          "name": "collateral",
          "type": "address"
        },
        {
          "indexed": false,
          "internalType": "address",
          "name": "exchange",
          "type": "address"
        }
      ],
      "name": "ExchangeCreated",
      "type": "event"
    },
    {
      "constant": false,
      "inputs": [
        {
          "internalType": "contract IERC20",
          "name": "_token",
          "type": "address"
        }
      ],
      "name": "create",
      "outputs": [
        {
          "internalType": "bool",
          "name": "",
          "type": "bool"
        }
      ],
      "payable": false,
      "stateMutability": "nonpayable",
      "type": "function"
    }
  ],
  "bytecode": "0x608060405234801561001057600080fd5b506127b2806100206000396000f3fe60806040523480156200001157600080fd5b5060043610620000465760003560e01c80637412dbb3146200004b5780639ed933181462000090578063d5c6b50414620000cd575b600080fd5b62000074600480360360208110156200006357600080fd5b50356001600160a01b0316620000f6565b604080516001600160a01b039092168252519081900360200190f35b620000b960048036036020811015620000a857600080fd5b50356001600160a01b031662000111565b604080519115158252519081900360200190f35b6200007460048036036020811015620000e557600080fd5b50356001600160a01b031662000208565b6001602052600090815260409020546001600160a01b031681565b6000806200011f8362000223565b905060006200012f84836200077e565b90506000829050806001600160a01b031663983b2d56836040518263ffffffff1660e01b815260040180826001600160a01b03166001600160a01b03168152602001915050600060405180830381600087803b1580156200018f57600080fd5b505af1158015620001a4573d6000803e3d6000fd5b50505050806001600160a01b031663986502756040518163ffffffff1660e01b8152600401600060405180830381600087803b158015620001e457600080fd5b505af1158015620001f9573d6000803e3d6000fd5b50600198975050505050505050565b6000602081905290815260409020546001600160a01b031681565b6000808290506060816001600160a01b03166306fdde036040518163ffffffff1660e01b815260040160006040518083038186803b1580156200026557600080fd5b505afa1580156200027a573d6000803e3d6000fd5b505050506040513d6000823e601f3d908101601f191682016040526020811015620002a457600080fd5b8101908080516040519392919084640100000000821115620002c557600080fd5b908301906020820185811115620002db57600080fd5b8251640100000000811182820188101715620002f657600080fd5b82525081516020918201929091019080838360005b83811015620003255781810151838201526020016200030b565b50505050905090810190601f168015620003535780820380516001836020036101000a031916815260200191505b5060405250505060405160200180806615dc985c1c195960ca1b81525060070180600160fd1b81525060010182805190602001908083835b60208310620003ac5780518252601f1990920191602091820191016200038b565b6001836020036101000a03801982511681845116808217855250505050505090500191505060405160208183030381529060405290506060826001600160a01b03166395d89b416040518163ffffffff1660e01b815260040160006040518083038186803b1580156200041e57600080fd5b505afa15801562000433573d6000803e3d6000fd5b505050506040513d6000823e601f3d908101601f1916820160405260208110156200045d57600080fd5b81019080805160405193929190846401000000008211156200047e57600080fd5b9083019060208201858111156200049457600080fd5b8251640100000000811182820188101715620004af57600080fd5b82525081516020918201929091019080838360005b83811015620004de578181015183820152602001620004c4565b50505050905090810190601f1680156200050c5780820380516001836020036101000a031916815260200191505b506040525050506040516020018080607760f81b81525060010182805190602001908083835b60208310620005535780518252601f19909201916020918201910162000532565b6001836020036101000a03801982511681845116808217855250505050505090500191505060405160208183030381529060405290506000836001600160a01b031663313ce5676040518163ffffffff1660e01b815260040160206040518083038186803b158015620005c557600080fd5b505afa158015620005da573d6000803e3d6000fd5b505050506040513d6020811015620005f157600080fd5b50516040519091506000908490849084906200060d9062000839565b60ff82166040820152606080825284519082015283518190602080830191608084019188019080838360005b838110156200065357818101518382015260200162000639565b50505050905090810190601f168015620006815780820380516001836020036101000a031916815260200191505b50838103825285518152855160209182019187019080838360005b83811015620006b65781810151838201526020016200069c565b50505050905090810190601f168015620006e45780820380516001836020036101000a031916815260200191505b5095505050505050604051809103906000f08015801562000709573d6000803e3d6000fd5b506001600160a01b038881166000818152602081815260409182902080546001600160a01b0319169486169485179055815192835282019290925281519293507f47cdbd9ccb21e8c42b64c67901cd6369386d9c327365e6af6d4e479add31095e929081900390910190a19695505050505050565b6000808383604051620007919062000847565b6001600160a01b03928316815291166020820152604080519182900301906000f080158015620007c5573d6000803e3d6000fd5b506001600160a01b0385811660008181526001602090815260409182902080546001600160a01b0319169486169485179055815192835282019290925281519293507f2c4532633e8c7bd3e122b4acb022f8b719c809c0722baa1996befc9a26ad6e6c929081900390910190a19392505050565b61138a806200085683390190565b610b9e8062001be08339019056fe60806040523480156200001157600080fd5b506040516200138a3803806200138a833981810160405260608110156200003757600080fd5b81019080805160405193929190846401000000008211156200005857600080fd5b9083019060208201858111156200006e57600080fd5b82516401000000008111828201881017156200008957600080fd5b82525081516020918201929091019080838360005b83811015620000b85781810151838201526020016200009e565b50505050905090810190601f168015620000e65780820380516001836020036101000a031916815260200191505b50604052602001805160405193929190846401000000008211156200010a57600080fd5b9083019060208201858111156200012057600080fd5b82516401000000008111828201881017156200013b57600080fd5b82525081516020918201929091019080838360005b838110156200016a57818101518382015260200162000150565b50505050905090810190601f168015620001985780820380516001836020036101000a031916815260200191505b506040526020015191508390508282620001bb336001600160e01b036200020716565b8251620001d090600490602086019062000383565b508151620001e690600590602085019062000383565b506006805460ff191660ff9290921691909117905550620004289350505050565b620002228160036200025960201b62000cf11790919060201c565b6040516001600160a01b038216907f6ae172837ea30b801fbfcdd4108aa1d5bf8ff775444fd70256b44e6bf3dfc3f690600090a250565b6200026e82826001600160e01b036200030016565b15620002db57604080517f08c379a000000000000000000000000000000000000000000000000000000000815260206004820152601f60248201527f526f6c65733a206163636f756e7420616c72656164792068617320726f6c6500604482015290519081900360640190fd5b6001600160a01b0316600090815260209190915260409020805460ff19166001179055565b60006001600160a01b03821662000363576040517f08c379a0000000000000000000000000000000000000000000000000000000008152600401808060200182810382526022815260200180620013686022913960400191505060405180910390fd5b506001600160a01b03166000908152602091909152604090205460ff1690565b828054600181600116156101000203166002900490600052602060002090601f016020900481019282601f10620003c657805160ff1916838001178555620003f6565b82800160010185558215620003f6579182015b82811115620003f6578251825591602001919060010190620003d9565b506200040492915062000408565b5090565b6200042591905b808211156200040457600081556001016200040f565b90565b610f3080620004386000396000f3fe608060405234801561001057600080fd5b506004361061010b5760003560e01c806370a08231116100a257806398650275116100715780639865027514610332578063a457c2d71461033a578063a9059cbb14610366578063aa271e1a14610392578063dd62ed3e146103b85761010b565b806370a08231146102b257806379cc6790146102d857806395d89b4114610304578063983b2d561461030c5761010b565b8063313ce567116100de578063313ce5671461021d578063395093511461023b57806340c10f191461026757806342966c68146102935761010b565b806306fdde0314610110578063095ea7b31461018d57806318160ddd146101cd57806323b872dd146101e7575b600080fd5b6101186103e6565b6040805160208082528351818301528351919283929083019185019080838360005b8381101561015257818101518382015260200161013a565b50505050905090810190601f16801561017f5780820380516001836020036101000a031916815260200191505b509250505060405180910390f35b6101b9600480360360408110156101a357600080fd5b506001600160a01b03813516906020013561047c565b604080519115158252519081900360200190f35b6101d5610492565b60408051918252519081900360200190f35b6101b9600480360360608110156101fd57600080fd5b506001600160a01b03813581169160208101359091169060400135610498565b6102256104ef565b6040805160ff9092168252519081900360200190f35b6101b96004803603604081101561025157600080fd5b506001600160a01b0381351690602001356104f8565b6101b96004803603604081101561027d57600080fd5b506001600160a01b038135169060200135610534565b6102b0600480360360208110156102a957600080fd5b5035610584565b005b6101d5600480360360208110156102c857600080fd5b50356001600160a01b0316610591565b6102b0600480360360408110156102ee57600080fd5b506001600160a01b0381351690602001356105ac565b6101186105ba565b6102b06004803603602081101561032257600080fd5b50356001600160a01b031661061b565b6102b0610668565b6101b96004803603604081101561035057600080fd5b506001600160a01b038135169060200135610673565b6101b96004803603604081101561037c57600080fd5b506001600160a01b0381351690602001356106af565b6101b9600480360360208110156103a857600080fd5b50356001600160a01b03166106bc565b6101d5600480360360408110156103ce57600080fd5b506001600160a01b03813581169160200135166106d5565b60048054604080516020601f60026000196101006001881615020190951694909404938401819004810282018101909252828152606093909290918301828280156104725780601f1061044757610100808354040283529160200191610472565b820191906000526020600020905b81548152906001019060200180831161045557829003601f168201915b5050505050905090565b6000610489338484610700565b50600192915050565b60025490565b60006104a58484846107ec565b6001600160a01b0384166000908152600160209081526040808320338085529252909120546104e59186916104e0908663ffffffff61092e16565b610700565b5060019392505050565b60065460ff1690565b3360008181526001602090815260408083206001600160a01b038716845290915281205490916104899185906104e0908663ffffffff61098b16565b600061053f336106bc565b61057a5760405162461bcd60e51b8152600401808060200182810382526030815260200180610e1f6030913960400191505060405180910390fd5b61048983836109ec565b61058e3382610adc565b50565b6001600160a01b031660009081526020819052604090205490565b6105b68282610bb5565b5050565b60058054604080516020601f60026000196101006001881615020190951694909404938401819004810282018101909252828152606093909290918301828280156104725780601f1061044757610100808354040283529160200191610472565b610624336106bc565b61065f5760405162461bcd60e51b8152600401808060200182810382526030815260200180610e1f6030913960400191505060405180910390fd5b61058e81610bfa565b61067133610c42565b565b3360008181526001602090815260408083206001600160a01b038716845290915281205490916104899185906104e0908663ffffffff61092e16565b60006104893384846107ec565b60006106cf60038363ffffffff610c8a16565b92915050565b6001600160a01b03918216600090815260016020908152604080832093909416825291909152205490565b6001600160a01b0383166107455760405162461bcd60e51b8152600401808060200182810382526024815260200180610ed86024913960400191505060405180910390fd5b6001600160a01b03821661078a5760405162461bcd60e51b8152600401808060200182810382526022815260200180610dfd6022913960400191505060405180910390fd5b6001600160a01b03808416600081815260016020908152604080832094871680845294825291829020859055815185815291517f8c5be1e5ebec7d5bd14f71427d1e84f3dd0314c0f7b2291e5b200ac8c7c3b9259281900390910190a3505050565b6001600160a01b0383166108315760405162461bcd60e51b8152600401808060200182810382526025815260200180610eb36025913960400191505060405180910390fd5b6001600160a01b0382166108765760405162461bcd60e51b8152600401808060200182810382526023815260200180610dda6023913960400191505060405180910390fd5b6001600160a01b03831660009081526020819052604090205461089f908263ffffffff61092e16565b6001600160a01b0380851660009081526020819052604080822093909355908416815220546108d4908263ffffffff61098b16565b6001600160a01b038084166000818152602081815260409182902094909455805185815290519193928716927fddf252ad1be2c89b69c2b068fc378daa952ba7f163c4a11628f55a4df523b3ef92918290030190a3505050565b600082821115610985576040805162461bcd60e51b815260206004820152601e60248201527f536166654d6174683a207375627472616374696f6e206f766572666c6f770000604482015290519081900360640190fd5b50900390565b6000828201838110156109e5576040805162461bcd60e51b815260206004820152601b60248201527f536166654d6174683a206164646974696f6e206f766572666c6f770000000000604482015290519081900360640190fd5b9392505050565b6001600160a01b038216610a47576040805162461bcd60e51b815260206004820152601f60248201527f45524332303a206d696e7420746f20746865207a65726f206164647265737300604482015290519081900360640190fd5b600254610a5a908263ffffffff61098b16565b6002556001600160a01b038216600090815260208190526040902054610a86908263ffffffff61098b16565b6001600160a01b0383166000818152602081815260408083209490945583518581529351929391927fddf252ad1be2c89b69c2b068fc378daa952ba7f163c4a11628f55a4df523b3ef9281900390910190a35050565b6001600160a01b038216610b215760405162461bcd60e51b8152600401808060200182810382526021815260200180610e926021913960400191505060405180910390fd5b600254610b34908263ffffffff61092e16565b6002556001600160a01b038216600090815260208190526040902054610b60908263ffffffff61092e16565b6001600160a01b038316600081815260208181526040808320949094558351858152935191937fddf252ad1be2c89b69c2b068fc378daa952ba7f163c4a11628f55a4df523b3ef929081900390910190a35050565b610bbf8282610adc565b6001600160a01b0382166000908152600160209081526040808320338085529252909120546105b69184916104e0908563ffffffff61092e16565b610c0b60038263ffffffff610cf116565b6040516001600160a01b038216907f6ae172837ea30b801fbfcdd4108aa1d5bf8ff775444fd70256b44e6bf3dfc3f690600090a250565b610c5360038263ffffffff610d7216565b6040516001600160a01b038216907fe94479a9f7e1952cc78f2d6baab678adc1b772d936c6583def489e524cb6669290600090a250565b60006001600160a01b038216610cd15760405162461bcd60e51b8152600401808060200182810382526022815260200180610e706022913960400191505060405180910390fd5b506001600160a01b03166000908152602091909152604090205460ff1690565b610cfb8282610c8a565b15610d4d576040805162461bcd60e51b815260206004820152601f60248201527f526f6c65733a206163636f756e7420616c72656164792068617320726f6c6500604482015290519081900360640190fd5b6001600160a01b0316600090815260209190915260409020805460ff19166001179055565b610d7c8282610c8a565b610db75760405162461bcd60e51b8152600401808060200182810382526021815260200180610e4f6021913960400191505060405180910390fd5b6001600160a01b0316600090815260209190915260409020805460ff1916905556fe45524332303a207472616e7366657220746f20746865207a65726f206164647265737345524332303a20617070726f766520746f20746865207a65726f20616464726573734d696e746572526f6c653a2063616c6c657220646f6573206e6f74206861766520746865204d696e74657220726f6c65526f6c65733a206163636f756e7420646f6573206e6f74206861766520726f6c65526f6c65733a206163636f756e7420697320746865207a65726f206164647265737345524332303a206275726e2066726f6d20746865207a65726f206164647265737345524332303a207472616e736665722066726f6d20746865207a65726f206164647265737345524332303a20617070726f76652066726f6d20746865207a65726f2061646472657373a265627a7a723158203b3b74bcad7b92d3a9ef78b725fee6b22bf9f9872a96797035cc5bba31ae7e9964736f6c634300050b0032526f6c65733a206163636f756e7420697320746865207a65726f2061646472657373608060405234801561001057600080fd5b50604051610b9e380380610b9e8339818101604052604081101561003357600080fd5b5080516020909101516001600081905580546001600160a01b039384166001600160a01b03199182161790915560028054939092169216919091179055610b1f8061007f6000396000f3fe608060405234801561001057600080fd5b506004361061007d5760003560e01c80639555a9421161005b5780639555a94214610103578063996c6cc314610139578063b6b55f251461015d578063fc0c546a1461017a5761007d565b8063047fc9aa146100825780632e1a7d4d1461009c57806368a9674d146100cd575b600080fd5b61008a610182565b60408051918252519081900360200190f35b6100b9600480360360208110156100b257600080fd5b50356101fe565b604080519115158252519081900360200190f35b6100b9600480360360608110156100e357600080fd5b506001600160a01b0381358116916020810135909116906040013561031a565b6100b96004803603606081101561011957600080fd5b506001600160a01b038135811691602081013590911690604001356104e2565b61014161068d565b604080516001600160a01b039092168252519081900360200190f35b6100b96004803603602081101561017357600080fd5b503561069c565b6101416107c7565b600154604080516370a0823160e01b815230600482015290516000926001600160a01b0316916370a08231916024808301926020929190829003018186803b1580156101cd57600080fd5b505afa1580156101e1573d6000803e3d6000fd5b505050506040513d60208110156101f757600080fd5b5051905090565b60008054600101808255604080513381526020810185905281517f7084f5476618d8e60b11ef0d7d3f06914655adb8793e28ff7f018d4c76d505d5929181900390910190a16002546040805163079cc67960e41b81523360048201526024810186905290516001600160a01b03909216916379cc67909160448082019260009290919082900301818387803b15801561029657600080fd5b505af11580156102aa573d6000803e3d6000fd5b50506001546102cc92506001600160a01b03169050338563ffffffff6107d616565b600191506000548114610314576040805162461bcd60e51b815260206004820152601f6024820152600080516020610a4c833981519152604482015290519081900360640190fd5b50919050565b600080546001018082556001600160a01b0385166103695760405162461bcd60e51b8152600401808060200182810382526028815260200180610a996028913960400191505060405180910390fd5b6001600160a01b0384166103ae5760405162461bcd60e51b815260040180806020018281038252602d815260200180610a6c602d913960400191505060405180910390fd5b604080516001600160a01b03871681526020810185905281517f2da466a7b24304f47e87fa2e1e5a81b9831ce54fec19055ce277ca2f39ba42c4929181900390910190a1600154610410906001600160a01b031686308663ffffffff61082d16565b600254604080516340c10f1960e01b81526001600160a01b03878116600483015260248201879052915191909216916340c10f199160448083019260209291908290030181600087803b15801561046657600080fd5b505af115801561047a573d6000803e3d6000fd5b505050506040513d602081101561049057600080fd5b50600192505060005481146104da576040805162461bcd60e51b815260206004820152601f6024820152600080516020610a4c833981519152604482015290519081900360640190fd5b509392505050565b600080546001018082556001600160a01b0385166105315760405162461bcd60e51b8152600401808060200182810382526028815260200180610a996028913960400191505060405180910390fd5b6001600160a01b0384166105765760405162461bcd60e51b815260040180806020018281038252602d815260200180610a6c602d913960400191505060405180910390fd5b604080516001600160a01b03871681526020810185905281517f7084f5476618d8e60b11ef0d7d3f06914655adb8793e28ff7f018d4c76d505d5929181900390910190a16002546040805163079cc67960e41b81526001600160a01b03888116600483015260248201879052915191909216916379cc679091604480830192600092919082900301818387803b15801561060f57600080fd5b505af1158015610623573d6000803e3d6000fd5b505060015461064592506001600160a01b03169050858563ffffffff6107d616565b6001915060005481146104da576040805162461bcd60e51b815260206004820152601f6024820152600080516020610a4c833981519152604482015290519081900360640190fd5b6002546001600160a01b031681565b60008054600101808255604080513381526020810185905281517f2da466a7b24304f47e87fa2e1e5a81b9831ce54fec19055ce277ca2f39ba42c4929181900390910190a16001546106ff906001600160a01b031633308663ffffffff61082d16565b600254604080516340c10f1960e01b81523360048201526024810186905290516001600160a01b03909216916340c10f19916044808201926020929091908290030181600087803b15801561075357600080fd5b505af1158015610767573d6000803e3d6000fd5b505050506040513d602081101561077d57600080fd5b5060019250506000548114610314576040805162461bcd60e51b815260206004820152601f6024820152600080516020610a4c833981519152604482015290519081900360640190fd5b6001546001600160a01b031681565b604080516001600160a01b038416602482015260448082018490528251808303909101815260649091019091526020810180516001600160e01b031663a9059cbb60e01b17905261082890849061088d565b505050565b604080516001600160a01b0385811660248301528416604482015260648082018490528251808303909101815260849091019091526020810180516001600160e01b03166323b872dd60e01b17905261088790859061088d565b50505050565b61089f826001600160a01b0316610a45565b6108f0576040805162461bcd60e51b815260206004820152601f60248201527f5361666545524332303a2063616c6c20746f206e6f6e2d636f6e747261637400604482015290519081900360640190fd5b60006060836001600160a01b0316836040518082805190602001908083835b6020831061092e5780518252601f19909201916020918201910161090f565b6001836020036101000a0380198251168184511680821785525050505050509050019150506000604051808303816000865af19150503d8060008114610990576040519150601f19603f3d011682016040523d82523d6000602084013e610995565b606091505b5091509150816109ec576040805162461bcd60e51b815260206004820181905260248201527f5361666545524332303a206c6f772d6c6576656c2063616c6c206661696c6564604482015290519081900360640190fd5b80511561088757808060200190516020811015610a0857600080fd5b50516108875760405162461bcd60e51b815260040180806020018281038252602a815260200180610ac1602a913960400191505060405180910390fd5b3b15159056fe5265656e7472616e637947756172643a207265656e7472616e742063616c6c0044657374696e6174696f6e20616464726573732063616e6e6f742062652061207a65726f20616464726573732e536f7572636520616464726573732063616e6e6f742062652061207a65726f20616464726573732e5361666545524332303a204552433230206f7065726174696f6e20646964206e6f742073756363656564a265627a7a723158205952b7db19bc72eb6a77ca46b7dd22cedc4fcde16ff278eb8d3cc02b8087574764736f6c634300050b0032a265627a7a723158200104bcb65dbd938cbdc3b8914a3e80e4bff2c2786908db664e8a85864e2e500b64736f6c634300050b0032",
  "source": "pragma solidity 0.5.11;\n\nimport \"@openzeppelin/contracts/token/ERC20/IERC20.sol\";\nimport \"@openzeppelin/contracts/token/ERC20/SafeERC20.sol\";\nimport \"@openzeppelin/contracts/access/roles/MinterRole.sol\";\nimport \"./interfaces/IERC20Detailed.sol\";\nimport \"./interfaces/IERC20MintableBurnable.sol\";\nimport \"./interfaces/IExchange.sol\";\nimport \"./interfaces/IFactory.sol\";\nimport \"./WrappedERC20Exchange.sol\";\nimport \"./WrappedERC20.sol\";\n\ncontract WrappedERC20Factory is IFactory {\n    using SafeERC20 for IERC20;\n\n    event WrappedTokenCreated(address collateral, address wrappedToken);\n    event ExchangeCreated(address collateral, address exchange);\n\n    mapping(address => IERC20MintableBurnable) public wrappedTokens; // Mapping of token address -> wrapped token address\n    mapping(address => IExchange) public exchanges; // Mapping of token address -> exchange address\n\n    /**\n    * @dev Deploys a new WrappedERC20 token and automated Exchange contract for a given ERC20 token.\n    * @param _token ERC20 token address e.g. PAY token\n    */\n    function create(IERC20 _token) public returns (bool) {\n        IERC20MintableBurnable wrappedToken = createWrappedToken(_token);\n        IExchange exchange = createExchange(_token, wrappedToken);\n\n        // Handover ERC20Mintable mint permissions from deployer to Exchange contract\n        MinterRole mintable = MinterRole(address(wrappedToken));\n        mintable.addMinter(address(exchange));\n        mintable.renounceMinter();\n\n        return true;\n    }\n\n    /**\n    * @dev Deploys a new WrappedERC20 token for a given ERC20 token.\n    * @param _token ERC20 token address e.g. PAY token\n    * @return IERC20MintableBurnable wrapped token address\n    */\n    function createWrappedToken(IERC20 _token) internal returns (IERC20MintableBurnable) {\n        // Get name, symbol, and decimals directly from _token, via ERC20Detailed\n        IERC20Detailed t = IERC20Detailed(address(_token));\n        string memory wrappedName = string(abi.encodePacked(\"Wrapped\", \" \", t.name()));\n        string memory wrappedSymbol = string(abi.encodePacked(\"w\", t.symbol())); // e.g. wPAY\n        uint8 wrappedDecimals = uint8(t.decimals()); // Conversion from old ERC20 uint256 decimals to new uint8\n\n        IERC20MintableBurnable wrappedToken = new WrappedERC20(\n          wrappedName,\n          wrappedSymbol,\n          wrappedDecimals\n        );\n        wrappedTokens[address(_token)] = wrappedToken;\n        emit WrappedTokenCreated(address(_token), address(wrappedToken));\n\n        return wrappedToken;\n    }\n\n    /**\n    * @dev Deploys an automated Exchange contract for a given pair of ERC20 and WrappedERC20 tokens.\n    * @param _token ERC20 token address e.g. PAY token\n    * @param _wrappedToken Wrapped ERC20 token address e.g. wPAY token\n    * @return IExchange exchange address\n    */\n    function createExchange(IERC20 _token, IERC20MintableBurnable _wrappedToken) internal returns (IExchange) {\n        IExchange exchange = new WrappedERC20Exchange(\n          _token,\n          _wrappedToken\n        );\n        exchanges[address(_token)] = exchange;\n        emit ExchangeCreated(address(_token), address(exchange));\n\n        return exchange;\n    }\n}",
  "sourcePath": "/Users/yos/work/wrapped-ERC20/contracts/WrappedERC20Factory.sol",
  "compiler": {
    "name": "solc",
    "version": "0.5.11+commit.c082d0b4.Emscripten.clang"
  },
  "schemaVersion": "3.0.11",
  "updatedAt": "2019-10-17T11:36:25.040Z",
  "devdoc": {
    "methods": {
      "create(address)": {
        "details": "Deploys a new WrappedERC20 token and automated Exchange contract for a given ERC20 token.",
        "params": {
          "_token": "ERC20 token address e.g. PAY token"
        }
      }
    }
  },
  "userdoc": {
    "methods": {}
  }
}