{
  "contractName": "WrappedERC20Exchange",
  "abi": [
    {
      "constant": true,
      "inputs": [],
      "name": "wrappedToken",
      "outputs": [
        {
          "internalType": "contract IERC20MintableBurnable",
          "name": "",
          "type": "address"
        }
      ],
      "payable": false,
      "stateMutability": "view",
      "type": "function"
    },
    {
      "constant": true,
      "inputs": [],
      "name": "token",
      "outputs": [
        {
          "internalType": "contract IERC20",
          "name": "",
          "type": "address"
        }
      ],
      "payable": false,
      "stateMutability": "view",
      "type": "function"
    },
    {
      "inputs": [
        {
          "internalType": "contract IERC20",
          "name": "_token",
          "type": "address"
        },
        {
          "internalType": "contract IERC20MintableBurnable",
          "name": "_wrappedToken",
          "type": "address"
        }
      ],
      "payable": false,
      "stateMutability": "nonpayable",
      "type": "constructor"
    },
    {
      "anonymous": false,
      "inputs": [
        {
          "indexed": false,
          "internalType": "address",
          "name": "payee",
          "type": "address"
        },
        {
          "indexed": false,
          "internalType": "uint256",
          "name": "amount",
          "type": "uint256"
        }
      ],
      "name": "Deposited",
      "type": "event"
    },
    {
      "anonymous": false,
      "inputs": [
        {
          "indexed": false,
          "internalType": "address",
          "name": "payee",
          "type": "address"
        },
        {
          "indexed": false,
          "internalType": "uint256",
          "name": "amount",
          "type": "uint256"
        }
      ],
      "name": "Withdrawn",
      "type": "event"
    },
    {
      "constant": false,
      "inputs": [
        {
          "internalType": "uint256",
          "name": "_amount",
          "type": "uint256"
        }
      ],
      "name": "deposit",
      "outputs": [
        {
          "internalType": "bool",
          "name": "",
          "type": "bool"
        }
      ],
      "payable": false,
      "stateMutability": "nonpayable",
      "type": "function"
    },
    {
      "constant": false,
      "inputs": [
        {
          "internalType": "address",
          "name": "_source",
          "type": "address"
        },
        {
          "internalType": "address",
          "name": "_destination",
          "type": "address"
        },
        {
          "internalType": "uint256",
          "name": "_amount",
          "type": "uint256"
        }
      ],
      "name": "depositFrom",
      "outputs": [
        {
          "internalType": "bool",
          "name": "",
          "type": "bool"
        }
      ],
      "payable": false,
      "stateMutability": "nonpayable",
      "type": "function"
    },
    {
      "constant": false,
      "inputs": [
        {
          "internalType": "uint256",
          "name": "_amount",
          "type": "uint256"
        }
      ],
      "name": "withdraw",
      "outputs": [
        {
          "internalType": "bool",
          "name": "",
          "type": "bool"
        }
      ],
      "payable": false,
      "stateMutability": "nonpayable",
      "type": "function"
    },
    {
      "constant": false,
      "inputs": [
        {
          "internalType": "address",
          "name": "_source",
          "type": "address"
        },
        {
          "internalType": "address",
          "name": "_destination",
          "type": "address"
        },
        {
          "internalType": "uint256",
          "name": "_amount",
          "type": "uint256"
        }
      ],
      "name": "withdrawFrom",
      "outputs": [
        {
          "internalType": "bool",
          "name": "",
          "type": "bool"
        }
      ],
      "payable": false,
      "stateMutability": "nonpayable",
      "type": "function"
    },
    {
      "constant": true,
      "inputs": [],
      "name": "supply",
      "outputs": [
        {
          "internalType": "uint256",
          "name": "",
          "type": "uint256"
        }
      ],
      "payable": false,
      "stateMutability": "view",
      "type": "function"
    }
  ],
  "bytecode": "0x608060405234801561001057600080fd5b50604051610b9e380380610b9e8339818101604052604081101561003357600080fd5b5080516020909101516001600081905580546001600160a01b039384166001600160a01b03199182161790915560028054939092169216919091179055610b1f8061007f6000396000f3fe608060405234801561001057600080fd5b506004361061007d5760003560e01c80639555a9421161005b5780639555a94214610103578063996c6cc314610139578063b6b55f251461015d578063fc0c546a1461017a5761007d565b8063047fc9aa146100825780632e1a7d4d1461009c57806368a9674d146100cd575b600080fd5b61008a610182565b60408051918252519081900360200190f35b6100b9600480360360208110156100b257600080fd5b50356101fe565b604080519115158252519081900360200190f35b6100b9600480360360608110156100e357600080fd5b506001600160a01b0381358116916020810135909116906040013561031a565b6100b96004803603606081101561011957600080fd5b506001600160a01b038135811691602081013590911690604001356104e2565b61014161068d565b604080516001600160a01b039092168252519081900360200190f35b6100b96004803603602081101561017357600080fd5b503561069c565b6101416107c7565b600154604080516370a0823160e01b815230600482015290516000926001600160a01b0316916370a08231916024808301926020929190829003018186803b1580156101cd57600080fd5b505afa1580156101e1573d6000803e3d6000fd5b505050506040513d60208110156101f757600080fd5b5051905090565b60008054600101808255604080513381526020810185905281517f7084f5476618d8e60b11ef0d7d3f06914655adb8793e28ff7f018d4c76d505d5929181900390910190a16002546040805163079cc67960e41b81523360048201526024810186905290516001600160a01b03909216916379cc67909160448082019260009290919082900301818387803b15801561029657600080fd5b505af11580156102aa573d6000803e3d6000fd5b50506001546102cc92506001600160a01b03169050338563ffffffff6107d616565b600191506000548114610314576040805162461bcd60e51b815260206004820152601f6024820152600080516020610a4c833981519152604482015290519081900360640190fd5b50919050565b600080546001018082556001600160a01b0385166103695760405162461bcd60e51b8152600401808060200182810382526028815260200180610a996028913960400191505060405180910390fd5b6001600160a01b0384166103ae5760405162461bcd60e51b815260040180806020018281038252602d815260200180610a6c602d913960400191505060405180910390fd5b604080516001600160a01b03871681526020810185905281517f2da466a7b24304f47e87fa2e1e5a81b9831ce54fec19055ce277ca2f39ba42c4929181900390910190a1600154610410906001600160a01b031686308663ffffffff61082d16565b600254604080516340c10f1960e01b81526001600160a01b03878116600483015260248201879052915191909216916340c10f199160448083019260209291908290030181600087803b15801561046657600080fd5b505af115801561047a573d6000803e3d6000fd5b505050506040513d602081101561049057600080fd5b50600192505060005481146104da576040805162461bcd60e51b815260206004820152601f6024820152600080516020610a4c833981519152604482015290519081900360640190fd5b509392505050565b600080546001018082556001600160a01b0385166105315760405162461bcd60e51b8152600401808060200182810382526028815260200180610a996028913960400191505060405180910390fd5b6001600160a01b0384166105765760405162461bcd60e51b815260040180806020018281038252602d815260200180610a6c602d913960400191505060405180910390fd5b604080516001600160a01b03871681526020810185905281517f7084f5476618d8e60b11ef0d7d3f06914655adb8793e28ff7f018d4c76d505d5929181900390910190a16002546040805163079cc67960e41b81526001600160a01b03888116600483015260248201879052915191909216916379cc679091604480830192600092919082900301818387803b15801561060f57600080fd5b505af1158015610623573d6000803e3d6000fd5b505060015461064592506001600160a01b03169050858563ffffffff6107d616565b6001915060005481146104da576040805162461bcd60e51b815260206004820152601f6024820152600080516020610a4c833981519152604482015290519081900360640190fd5b6002546001600160a01b031681565b60008054600101808255604080513381526020810185905281517f2da466a7b24304f47e87fa2e1e5a81b9831ce54fec19055ce277ca2f39ba42c4929181900390910190a16001546106ff906001600160a01b031633308663ffffffff61082d16565b600254604080516340c10f1960e01b81523360048201526024810186905290516001600160a01b03909216916340c10f19916044808201926020929091908290030181600087803b15801561075357600080fd5b505af1158015610767573d6000803e3d6000fd5b505050506040513d602081101561077d57600080fd5b5060019250506000548114610314576040805162461bcd60e51b815260206004820152601f6024820152600080516020610a4c833981519152604482015290519081900360640190fd5b6001546001600160a01b031681565b604080516001600160a01b038416602482015260448082018490528251808303909101815260649091019091526020810180516001600160e01b031663a9059cbb60e01b17905261082890849061088d565b505050565b604080516001600160a01b0385811660248301528416604482015260648082018490528251808303909101815260849091019091526020810180516001600160e01b03166323b872dd60e01b17905261088790859061088d565b50505050565b61089f826001600160a01b0316610a45565b6108f0576040805162461bcd60e51b815260206004820152601f60248201527f5361666545524332303a2063616c6c20746f206e6f6e2d636f6e747261637400604482015290519081900360640190fd5b60006060836001600160a01b0316836040518082805190602001908083835b6020831061092e5780518252601f19909201916020918201910161090f565b6001836020036101000a0380198251168184511680821785525050505050509050019150506000604051808303816000865af19150503d8060008114610990576040519150601f19603f3d011682016040523d82523d6000602084013e610995565b606091505b5091509150816109ec576040805162461bcd60e51b815260206004820181905260248201527f5361666545524332303a206c6f772d6c6576656c2063616c6c206661696c6564604482015290519081900360640190fd5b80511561088757808060200190516020811015610a0857600080fd5b50516108875760405162461bcd60e51b815260040180806020018281038252602a815260200180610ac1602a913960400191505060405180910390fd5b3b15159056fe5265656e7472616e637947756172643a207265656e7472616e742063616c6c0044657374696e6174696f6e20616464726573732063616e6e6f742062652061207a65726f20616464726573732e536f7572636520616464726573732063616e6e6f742062652061207a65726f20616464726573732e5361666545524332303a204552433230206f7065726174696f6e20646964206e6f742073756363656564a265627a7a723158205952b7db19bc72eb6a77ca46b7dd22cedc4fcde16ff278eb8d3cc02b8087574764736f6c634300050b0032",
  "source": "pragma solidity 0.5.11;\n\n\nimport \"@openzeppelin/contracts/token/ERC20/IERC20.sol\";\nimport \"@openzeppelin/contracts/token/ERC20/SafeERC20.sol\";\nimport \"@openzeppelin/contracts/utils/ReentrancyGuard.sol\";\nimport \"./interfaces/IERC20MintableBurnable.sol\";\nimport \"./interfaces/IExchange.sol\";\n\n\n/**\n * @dev Automated market maker to deposit ERC20 tokens and withdraw wrapped ERC20 tokens against.\n*/\ncontract WrappedERC20Exchange is IExchange, ReentrancyGuard {\n    using SafeERC20 for IERC20;\n\n    event Deposited(address payee, uint amount);\n    event Withdrawn(address payee, uint amount);\n\n    IERC20 public token;\n    IERC20MintableBurnable public wrappedToken;\n\n    constructor (IERC20 _token, IERC20MintableBurnable _wrappedToken) public {\n        token = _token;\n        wrappedToken = _wrappedToken;\n    }\n\n    /**\n    * @dev Wraps a specified amount of tokens into their wrapped counterpart.\n    * Caller must have approved _amount allowance of unwrapped tokens for this exchange contract address to wrap.\n    * @param _amount Amount of tokens to wrap.\n    * @return true    \n    */\n    function deposit(uint _amount) public nonReentrant returns (bool) {\n        emit Deposited(msg.sender, _amount);\n\n        // msg.sender must have sufficient token allowance for address(this) to transferFrom\n        token.safeTransferFrom(msg.sender, address(this), _amount);\n\n        // Mint an equivalent amount of wrapped token for each token\n        wrappedToken.mint(msg.sender, _amount);\n\n        return true;\n    }\n\n    /**\n    * @dev Wraps a specified amount of tokens into their wrapped counterpart.\n    * Source must have approved _amount allowance of unwrapped tokens for this exchange contract address to wrap.\n    * @param _source Address holding unwrapped tokens.\n    * @param _destination Address to receive wrapped tokens.\n    * @param _amount Amount of tokens to wrap.\n    * @return true    \n    */\n    function depositFrom(address _source, address _destination, uint _amount) public nonReentrant returns (bool) {\n        require(_source != address(0), \"Source address cannot be a zero address.\");\n        require(_destination != address(0), \"Destination address cannot be a zero address.\");\n\n        emit Deposited(_source, _amount);\n\n        // _source address must have sufficient token allowance for address(this) to transferFrom\n        token.safeTransferFrom(_source, address(this), _amount);\n\n        // Mint an equivalent amount of wrapped token for each token\n        wrappedToken.mint(_destination, _amount);\n\n        return true;\n    }\n\n    /**\n    * @dev Unwraps a specified amount of wrapped tokens into their original collateral.\n    * Caller must have approved _amount allowance of wrapped tokens for this exchange contract address to unwrap.\n    * @param _amount Amount of tokens to unwrap.\n    * @return true    \n    */\n    function withdraw(uint _amount) public nonReentrant returns (bool) {\n        emit Withdrawn(msg.sender, _amount);\n\n        // msg.sender must have approved sufficient wrappedToken allowance for address(this) to burn\n        wrappedToken.burnFrom(msg.sender, _amount);\n\n        // Release token to sender\n        token.safeTransfer(msg.sender, _amount);\n\n        return true;\n    }\n\n    /**\n    * @dev Unwraps a specified amount of wrapped tokens into their original collateral.\n    * Source must have approved _amount allowance of wrapped tokens for this exchange contract address to unwrap.\n    * @param _source Address holding wrapped tokens.\n    * @param _destination Address to receive unwrapped tokens.\n    * @param _amount Amount of tokens to unwrap.\n    * @return true\n    */\n    function withdrawFrom(address _source, address _destination, uint _amount) public nonReentrant returns (bool) {\n        require(_source != address(0), \"Source address cannot be a zero address.\");\n        require(_destination != address(0), \"Destination address cannot be a zero address.\");\n\n        emit Withdrawn(_source, _amount);\n\n        // _source must have approved sufficient wrappedToken allowance for address(this) to burn\n        wrappedToken.burnFrom(_source, _amount);\n\n        // Release token to destination\n        token.safeTransfer(_destination, _amount);\n\n        return true;\n    }\n\n    /**\n    * @dev Returns the total amount of deposited (unwrapped) tokens in the exchange contract.\n    * @return uint Total amount of tokens\n    */\n    function supply() public view returns (uint) {\n        return token.balanceOf(address(this));\n    }\n}\n",
  "sourcePath": "/Users/yos/work/wrapped-ERC20/contracts/WrappedERC20Exchange.sol",
  "compiler": {
    "name": "solc",
    "version": "0.5.11+commit.c082d0b4.Emscripten.clang"
  },
  "schemaVersion": "3.0.11",
  "updatedAt": "2019-10-17T11:34:35.961Z",
  "devdoc": {
    "details": "Automated market maker to deposit ERC20 tokens and withdraw wrapped ERC20 tokens against.",
    "methods": {
      "deposit(uint256)": {
        "details": "Wraps a specified amount of tokens into their wrapped counterpart. Caller must have approved _amount allowance of unwrapped tokens for this exchange contract address to wrap.",
        "params": {
          "_amount": "Amount of tokens to wrap."
        },
        "return": "true    "
      },
      "depositFrom(address,address,uint256)": {
        "details": "Wraps a specified amount of tokens into their wrapped counterpart. Source must have approved _amount allowance of unwrapped tokens for this exchange contract address to wrap.",
        "params": {
          "_amount": "Amount of tokens to wrap.",
          "_destination": "Address to receive wrapped tokens.",
          "_source": "Address holding unwrapped tokens."
        },
        "return": "true    "
      },
      "supply()": {
        "details": "Returns the total amount of deposited (unwrapped) tokens in the exchange contract.",
        "return": "uint Total amount of tokens"
      },
      "withdraw(uint256)": {
        "details": "Unwraps a specified amount of wrapped tokens into their original collateral. Caller must have approved _amount allowance of wrapped tokens for this exchange contract address to unwrap.",
        "params": {
          "_amount": "Amount of tokens to unwrap."
        },
        "return": "true    "
      },
      "withdrawFrom(address,address,uint256)": {
        "details": "Unwraps a specified amount of wrapped tokens into their original collateral. Source must have approved _amount allowance of wrapped tokens for this exchange contract address to unwrap.",
        "params": {
          "_amount": "Amount of tokens to unwrap.",
          "_destination": "Address to receive unwrapped tokens.",
          "_source": "Address holding wrapped tokens."
        },
        "return": "true"
      }
    }
  },
  "userdoc": {
    "methods": {}
  }
}