{
  "contractName": "ComplexStorage",
  "abi": [
    {
      "constant": true,
      "inputs": [],
      "name": "string2",
      "outputs": [
        {
          "internalType": "bytes32",
          "name": "",
          "type": "bytes32"
        }
      ],
      "payable": false,
      "stateMutability": "view",
      "type": "function"
    },
    {
      "constant": true,
      "inputs": [],
      "name": "storeduint1",
      "outputs": [
        {
          "internalType": "uint256",
          "name": "",
          "type": "uint256"
        }
      ],
      "payable": false,
      "stateMutability": "view",
      "type": "function"
    },
    {
      "constant": true,
      "inputs": [],
      "name": "singleDD",
      "outputs": [
        {
          "internalType": "string",
          "name": "deviceBrand",
          "type": "string"
        },
        {
          "internalType": "string",
          "name": "deviceYear",
          "type": "string"
        },
        {
          "internalType": "string",
          "name": "batteryWearLevel",
          "type": "string"
        }
      ],
      "payable": false,
      "stateMutability": "view",
      "type": "function"
    },
    {
      "constant": true,
      "inputs": [
        {
          "internalType": "uint256",
          "name": "",
          "type": "uint256"
        }
      ],
      "name": "uintarray",
      "outputs": [
        {
          "internalType": "uint256",
          "name": "",
          "type": "uint256"
        }
      ],
      "payable": false,
      "stateMutability": "view",
      "type": "function"
    },
    {
      "constant": true,
      "inputs": [
        {
          "internalType": "uint256",
          "name": "",
          "type": "uint256"
        }
      ],
      "name": "deviceDataArray",
      "outputs": [
        {
          "internalType": "string",
          "name": "deviceBrand",
          "type": "string"
        },
        {
          "internalType": "string",
          "name": "deviceYear",
          "type": "string"
        },
        {
          "internalType": "string",
          "name": "batteryWearLevel",
          "type": "string"
        }
      ],
      "payable": false,
      "stateMutability": "view",
      "type": "function"
    },
    {
      "constant": true,
      "inputs": [],
      "name": "string3",
      "outputs": [
        {
          "internalType": "string",
          "name": "",
          "type": "string"
        }
      ],
      "payable": false,
      "stateMutability": "view",
      "type": "function"
    },
    {
      "constant": true,
      "inputs": [],
      "name": "constuint",
      "outputs": [
        {
          "internalType": "uint256",
          "name": "",
          "type": "uint256"
        }
      ],
      "payable": false,
      "stateMutability": "view",
      "type": "function"
    },
    {
      "constant": true,
      "inputs": [],
      "name": "string1",
      "outputs": [
        {
          "internalType": "bytes16",
          "name": "",
          "type": "bytes16"
        }
      ],
      "payable": false,
      "stateMutability": "view",
      "type": "function"
    },
    {
      "constant": true,
      "inputs": [],
      "name": "investmentsDeadlineTimeStamp",
      "outputs": [
        {
          "internalType": "uint32",
          "name": "",
          "type": "uint32"
        }
      ],
      "payable": false,
      "stateMutability": "view",
      "type": "function"
    },
    {
      "constant": true,
      "inputs": [],
      "name": "investmentsLimit",
      "outputs": [
        {
          "internalType": "uint128",
          "name": "",
          "type": "uint128"
        }
      ],
      "payable": false,
      "stateMutability": "view",
      "type": "function"
    },
    {
      "inputs": [],
      "payable": false,
      "stateMutability": "nonpayable",
      "type": "constructor"
    }
  ],
  "bytecode": "0x600f6000556001805461429f6001600160801b03199182161763ffffffff60801b19167001000000000000000000000000000000004263ffffffff160217909155600280549091166f746573743100000000000000000000001790557f746573743132333600000000000000000000000000000000000000000000000060035560c0604052601560808190527f6c65747320737472696e6720736f6d657468696e67000000000000000000000060a0908152620000c091600491906200064d565b50348015620000ce57600080fd5b5060587fafef6be2b419f4d69d56fe34788202bf06650015554457a2470181981bcce7ef5560637fb01ced36af2255129ceb004046ab791f2c883dd74d458026d7b81c7aaff3566b556040805160a081018252600b606082019081527f6465766963654272616e640000000000000000000000000000000000000000006080830152815281518083018352600a81527f64657669636559656172000000000000000000000000000000000000000000006020828101919091528281019190915282518084018452600981527f776561724c6576656c0000000000000000000000000000000000000000000000818301529282019290925273bccc714d56bc0da0fd33d96d2a87b680dd6d0df660008190526006835281518051919373aee905fdd3ed851e48d22059575b9f4245a82b0493927f720c187f2880b2567f9fccc279625ea13024b8b82a6f73e26d9ca6d82ede1cc592620002329284929101906200064d565b5060208281015180516200024d92600185019201906200064d565b50604082015180516200026b9160028401916020909101906200064d565b50506040805160a081018252600c606082019081527f6465766963654272616e643200000000000000000000000000000000000000006080830152815281518083018352600b81527f64657669636559656172320000000000000000000000000000000000000000006020828101919091528083019190915282518084018452600a81527f776561724c6576656c320000000000000000000000000000000000000000000081830152828401526001600160a01b0385166000908152600682529290922081518051929450909262000349928492909101906200064d565b5060208281015180516200036492600185019201906200064d565b5060408201518051620003829160028401916020909101906200064d565b50506040805160a081018252600c606082019081527f6465766963654272616e643300000000000000000000000000000000000000006080830152815281518083018352600b81527f64657669636559656172330000000000000000000000000000000000000000006020828101919091528083019190915282518084018452600a81527f776561724c6576656c33000000000000000000000000000000000000000000008183015292820192909252805180519193506009926200044d928492909101906200064d565b5060208281015180516200046892600185019201906200064d565b5060408201518051620004869160028401916020909101906200064d565b50506007805460018181018355611f407fa66cc928b5edb82af9bd49922954155ab7b0942694bea4ce44661d9a8736c68892830155825480820190935561232892909101919091556001600160a01b0384166000908152600660205260408120600880548085018083559190935281549094509092600390920260008051602062000e19833981519152019162000534918391859160026101009282161592909202600019011604620006d2565b50600182018160010190805460018160011615610100020316600290046200055e929190620006d2565b506002828101805462000585928481019291600019610100600183161502011604620006d2565b5050506001600160a01b03821660009081526006602052604081206008805460018181018084559290945282549194509192600390920260008051602062000e198339815191520191620005f0918391859160026101009282161592909202600019011604620006d2565b50600182018160010190805460018160011615610100020316600290046200061a929190620006d2565b506002828101805462000641928481019291600019610100600183161502011604620006d2565b5050505050506200076c565b828054600181600116156101000203166002900490600052602060002090601f016020900481019282601f106200069057805160ff1916838001178555620006c0565b82800160010185558215620006c0579182015b82811115620006c0578251825591602001919060010190620006a3565b50620006ce9291506200074c565b5090565b828054600181600116156101000203166002900490600052602060002090601f016020900481019282601f106200070d5780548555620006c0565b82800160010185558215620006c057600052602060002091601f016020900482015b82811115620006c05782548255916001019190600101906200072f565b6200076991905b80821115620006ce576000815560010162000753565b90565b61069d806200077c6000396000f3fe608060405234801561001057600080fd5b506004361061009e5760003560e01c80639275586011610066578063927558601461024b57806397ba784f146102c8578063a7b2cfca146102d0578063df4fddf5146102fe578063eec65f291461031f5761009e565b80630ca0aa79146100a357806311f9c74d146100bd57806328a20b5e146100c55780636c0c1bcf1461021157806384eeda561461022e575b600080fd5b6100ab610343565b60408051918252519081900360200190f35b6100ab610349565b6100cd61034f565b60405180806020018060200180602001848103845287818151815260200191508051906020019080838360005b838110156101125781810151838201526020016100fa565b50505050905090810190601f16801561013f5780820380516001836020036101000a031916815260200191505b50848103835286518152865160209182019188019080838360005b8381101561017257818101518382015260200161015a565b50505050905090810190601f16801561019f5780820380516001836020036101000a031916815260200191505b50848103825285518152855160209182019187019080838360005b838110156101d25781810151838201526020016101ba565b50505050905090810190601f1680156101ff5780820380516001836020036101000a031916815260200191505b50965050505050505060405180910390f35b6100ab6004803603602081101561022757600080fd5b5035610511565b6100cd6004803603602081101561024457600080fd5b503561052f565b6102536105aa565b6040805160208082528351818301528351919283929083019185019080838360005b8381101561028d578181015183820152602001610275565b50505050905090810190601f1680156102ba5780820380516001836020036101000a031916815260200191505b509250505060405180910390f35b6100ab610638565b6102d861063d565b604080516fffffffffffffffffffffffffffffffff199092168252519081900360200190f35b610306610646565b6040805163ffffffff9092168252519081900360200190f35b610327610659565b604080516001600160801b039092168252519081900360200190f35b60035481565b60005481565b60098054604080516020601f600260001961010060018816150201909516949094049384018190048102820181019092528281529183918301828280156103d75780601f106103ac576101008083540402835291602001916103d7565b820191906000526020600020905b8154815290600101906020018083116103ba57829003601f168201915b505050505090806001018054600181600116156101000203166002900480601f0160208091040260200160405190810160405280929190818152602001828054600181600116156101000203166002900480156104755780601f1061044a57610100808354040283529160200191610475565b820191906000526020600020905b81548152906001019060200180831161045857829003601f168201915b50505060028085018054604080516020601f60001961010060018716150201909416959095049283018590048502810185019091528181529596959450909250908301828280156105075780601f106104dc57610100808354040283529160200191610507565b820191906000526020600020905b8154815290600101906020018083116104ea57829003601f168201915b5050505050905083565b6007818154811061051e57fe5b600091825260209091200154905081565b6008818154811061053c57fe5b60009182526020918290206003919091020180546040805160026001841615610100026000190190931692909204601f8101859004850283018501909152808252919350918391908301828280156103d75780601f106103ac576101008083540402835291602001916103d7565b6004805460408051602060026001851615610100026000190190941693909304601f810184900484028201840190925281815292918301828280156106305780601f1061060557610100808354040283529160200191610630565b820191906000526020600020905b81548152906001019060200180831161061357829003601f168201915b505050505081565b601081565b60025460801b81565b600154600160801b900463ffffffff1681565b6001546001600160801b03168156fea265627a7a72315820bbc9eb401d9fbbdbb1cb7279a698bddd899dcd796006a89c9bc0beb1bff00ad564736f6c634300050b0032f3f7a9fe364faab93b216da50a3214154f22a0a2b415b23a84c8169e8b636ee3",
  "source": "pragma solidity >=0.4.21 <0.6.0;\n\ncontract ComplexStorage {\n    uint public storeduint1 = 15;\n    uint public constant constuint = 16;\n    uint128 public investmentsLimit = 17055;\n    uint32 public investmentsDeadlineTimeStamp = uint32(now);\n\n    bytes16 public string1 = \"test1\";\n    bytes32 public string2 = \"test1236\";\n    string public string3 = \"lets string something\";\n\n    mapping (address => uint) uints1;\n    mapping (address => DeviceData) structs1;\n\n    uint[] public uintarray;\n    DeviceData[] public deviceDataArray;\n    DeviceData public singleDD;\n\n    struct DeviceData {\n        string deviceBrand;\n        string deviceYear;\n        string batteryWearLevel;\n    }\n\n    constructor() public {\n        address address1 = 0xbCcc714d56bc0da0fd33d96d2a87b680dD6D0DF6;\n        address address2 = 0xaee905FdD3ED851e48d22059575b9F4245A82B04;\n\n        uints1[address1] = 88;\n        uints1[address2] = 99;\n\n        structs1[address1] = DeviceData(\"deviceBrand\", \"deviceYear\", \"wearLevel\");\n        structs1[address2] = DeviceData(\"deviceBrand2\", \"deviceYear2\", \"wearLevel2\");\n        singleDD = DeviceData(\"deviceBrand3\", \"deviceYear3\", \"wearLevel3\");\n\n        uintarray.push(8000);\n        uintarray.push(9000);\n\n        deviceDataArray.push(structs1[address1]);\n        deviceDataArray.push(structs1[address2]);\n    }\n}\n",
  "sourcePath": "/Users/yos/work/wrapped-ERC20/contracts/mocks/ComplexStorage.sol",
  "compiler": {
    "name": "solc",
    "version": "0.5.11+commit.c082d0b4.Emscripten.clang"
  },
  "schemaVersion": "3.0.19",
  "updatedAt": "2019-11-21T03:19:29.023Z",
  "networkType": "ethereum",
  "devdoc": {
    "methods": {}
  },
  "userdoc": {
    "methods": {}
  }
}