{
  "contractName": "SimpleStorage",
  "abi": [
    {
      "constant": true,
      "inputs": [],
      "name": "storedData",
      "outputs": [
        {
          "internalType": "uint256",
          "name": "",
          "type": "uint256"
        }
      ],
      "payable": false,
      "stateMutability": "view",
      "type": "function"
    },
    {
      "anonymous": false,
      "inputs": [
        {
          "indexed": false,
          "internalType": "string",
          "name": "_message",
          "type": "string"
        }
      ],
      "name": "StorageSet",
      "type": "event"
    },
    {
      "constant": false,
      "inputs": [
        {
          "internalType": "uint256",
          "name": "x",
          "type": "uint256"
        }
      ],
      "name": "set",
      "outputs": [],
      "payable": false,
      "stateMutability": "nonpayable",
      "type": "function"
    }
  ],
  "bytecode": "0x608060405234801561001057600080fd5b5061010e806100206000396000f3fe6080604052348015600f57600080fd5b506004361060325760003560e01c80632a1afcd914603757806360fe47b114604f575b600080fd5b603d606b565b60408051918252519081900360200190f35b606960048036036020811015606357600080fd5b50356071565b005b60005481565b60008190556040805160208082526019908201527f446174612073746f726564207375636365737366756c6c7921000000000000008183015290517f60cdc157ca4737a5d39a0e107532616e7bf6946e615228812c7f9bc9f81797a69181900360600190a15056fea265627a7a723158206f12deab678af9c18d7653f8306419db52af802215edd5f03a83ef1f176b1afa64736f6c634300050b0032",
  "source": "pragma solidity >=0.4.21 <0.6.0;\n\ncontract SimpleStorage {\n    event StorageSet(string _message);\n\n    uint256 public storedData;\n\n    function set(uint256 x) public {\n        storedData = x;\n\n        emit StorageSet(\"Data stored successfully!\");\n    }\n}\n",
  "sourcePath": "/Users/yos/work/wrapped-ERC20/contracts/mocks/SimpleStorage.sol",
  "compiler": {
    "name": "solc",
    "version": "0.5.11+commit.c082d0b4.Emscripten.clang"
  },
  "schemaVersion": "3.0.19",
  "updatedAt": "2019-11-21T03:23:20.877Z",
  "devdoc": {
    "methods": {}
  },
  "userdoc": {
    "methods": {}
  }
}